:100000000C942A000C943C000C943C000C943C0092
:100010000C943C000C943C000C943C000C943C0070
:100020000C943C000C943C000C943C000C943C0060
:100030000C943C000C943C000C943C000C943C0050
:100040000C943C000C943C000C943C000C943C0040
:100050000C943C0011241FBECFE5D8E0DEBFCDBF1D
:1000600020E0A0E6B0E001C01D92A537B207E1F79D
:100070000E943E000C94A2090C940000CF93DF93E1
:10008000CDB7DEB72A970FB6F894DEBF0FBECDBF4F
:1000900087B38F6087BB81B3837F81BB929A812CAA
:1000A000712C612C512C412C312C212C109274007C
:1000B000109273001092720010927100E1E6F0E06D
:1000C00080E1DF011D928A95E9F71092600081B30B
:1000D000806381BB82EB8FBD89E18EBD83E190E0BF
:1000E00097BD86BD86E090E09BBD8ABD8CE090E028
:1000F00099BD88BDF8941DBC1CBC91E06AE0B62E89
:1001000072E0972E3FEF0CE088E014E06EE076E0BE
:10011000EFE0AE2EF7E0CF2EADE0DA2EB5E0EB2E1D
:1001200029E08399B2C0BAE0B983B2E0A0E0E091DF
:100130006000F0E0EE0FFF1FEF59FF4FF080FB82F1
:10014000E1814CB55DB542315105D8F34B814BBBD4
:100150003ABB598158BB0000000000000000B8BB4A
:100160004CB55DB542315105D8F3EF73EBBB08BB1D
:1001700082990DC04CB55DB542315105D8F388BBAD
:10018000000000000000000018BA829BF3CF0000BE
:1001900000000000000018BB1ABA3BBB4CB55DB5AF
:1001A00042315105D8F368BB000000000000000098
:1001B00000000000B9B378BB4CB55DB542315105C4
:1001C000D8F3A8BA0000000000000000C8BA4CB57F
:1001D0005DB542315105D8F3D8BA000000000000E7
:1001E0000000E8BAA1110EC0E0916000F0E0EE0F4F
:1001F000FF1FEF59FF4F408151814F5F5F4F5F738A
:10020000518340834EEF4B0F4D3F08F043C048EC05
:100210004B0F423008F43EC0EB2FF0E0F987E8873F
:100220004B2F407C403C09F445C0403809F42AC1BA
:10023000411195C1E770E23008F448C2E23009F498
:1002400064C2E33009F442C3E43011F40C9497071C
:10025000E53009F453C4E63009F4BCC5B73009F4FD
:1002600046C3BF3309F443C383995BCF4CB55DB537
:1002700042315105D8F328BB000000000000000007
:1002800098BB839BF3CF839B4ECFEBE0E983B3E036
:10029000A1E04DCF839945CF4CB55DB542315105B5
:1002A000D8F328BB000000000000000098BB839B2F
:1002B000F3CF37CFAF015595479555954795559550
:1002C00047954770B7704B1709F42BCFEB2FF0E031
:1002D000E459FE4F0C949C098D018B018901870123
:1002E0008501830174018F01A82D50E0FA01E558C2
:1002F000FE4F0C949C09ED01EB01E901E701E501DA
:10030000E301E101EF01A72DF0CFA62DEECFA52D42
:10031000ECCFA42DEACFA32DE8CFA22DE6CFE72D79
:10032000F0E0FE2FEE27EE27FF73E829ACB5BDB550
:100330005297E0F3EBBB3ABBB8BA000000000000F4
:10034000000098BAACB5BDB55297E0F35F2F506886
:100350005BBB08BB82990CC0ECB5FDB57297E0F3AE
:1003600088BB000000000000000018BA829BF4CF98
:10037000000000000000000018BB1ABA3BBBECB53F
:10038000FDB57297E0F368BB0000000000000000BC
:1003900000000000A9B378BBECB5FDB57297E0F39F
:1003A000A8BA0000000000000000C8BAECB5FDB516
:1003B0007297E0F3D8BA0000000000000000E8BA2D
:1003C00094CF8A2EAECE7A2EACCE6A2EAACE5A2EDC
:1003D000A8CE4A2EA6CE3A2EA4CE2A2EA2CE472DA5
:1003E00050E0542F442744275F734829ECB5FDB5EE
:1003F0007297E0F34BBB3ABBB8BA000000000000B4
:10040000000098BAECB5FDB57297E0F3452F406C4B
:100410004BBB08BB82990DC04CB55DB5423151054F
:10042000D8F388BB000000000000000018BA829BCF
:10043000F3CF000000000000000018BB4CB55DB514
:1004400042315105D8F33ABBABBB68BB000000009A
:100450000000000078BB4CB55DB542315105D8F3C2
:10046000A8BA0000000000000000C8BA4CB55DB595
:1004700042315105D8F3D8BA000000000000000056
:10048000E8BA4FCEAF015595479555954795559587
:1004900047954770EB2FE770E150522DE73068F435
:1004A000F0E0EB5AFD4F0C949C099602AB02A902B6
:1004B000AD025C02A702B405572D41504730D0F180
:1004C000422DA22DA50FBB27BB1FFD01A1E0EF3FD1
:1004D000F10509F008F4A0E0A0937100450F242E67
:1004E00051E0411121C050937200542F551F5527E0
:1004F000551F50937300542F52955F705427452F0A
:10050000469546955427452F469545274095417079
:100510004093740006CEE22D4A2F4225242E1092DD
:10052000710051E0AE17F9F250E0DDCF532D41508C
:10053000473030F6E42FF0E0E056FD4F0C949C0974
:10054000390330031E0318030C036303AB05582D56
:10055000B4CF552DB2CF542DB0CF562DAECF4034A1
:1005600009F0DFCD4B2F4770443009F4F6C0463018
:1005700009F464C3B0FFD5CDEE73F22D4CB55DB573
:1005800042315105D8F3FBBB3ABBB8BA00000000BA
:100590000000000098BA4CB55DB542315105D8F362
:1005A000E164EBBB08BB82990DC04CB55DB542312F
:1005B0005105D8F388BB000000000000000018BA05
:1005C000829BF3CF000000000000000018BB4B2FFF
:1005D000407309F025C31ABA3BBB4CB55DB5423137
:1005E0005105D8F368BB00000000000000000000C7
:1005F000000029B278BB4CB55DB542315105D8F346
:10060000A8BA0000000000000000C8BA4CB55DB5F3
:1006100042315105D8F32FCFF22D452F4225242EFC
:1006200010927100E1E05F13E0E0E09372005DCFB3
:10063000452F4221242E1092710052CF422DF0906E
:100640007100A52FAF0DBB27BB1FFD01B1E02E161A
:100650001F0608F0B0E0B09371004F19451B3FCF63
:10066000422DE1E0251608F0E0E0E0937100451B23
:1006700036CF40917100A42FA20DBB27BB1FA50F41
:10068000B11DAD01E1E04F3F510509F008F4E0E094
:10069000E0937100242EE1E04111E0E0E09372006C
:1006A000E42FEE1FEE27EE1FE0937300FA01F5959D
:1006B000E795F595E795F595E795F595E795EF704D
:1006C000FF275E2F1BCF452F4229B4CF4885598580
:1006D0005595479555954795559547954770509130
:1006E00071004150E11198C1A22D473008F063C15B
:1006F000E42FF0E0E258FC4F0C949C09B408B208D7
:10070000B008AE08AA08B6088804A885B985B595CA
:10071000A795B595A795B595A795BA83A983A37015
:10072000A983F22D422D50E0AA2309F46FC2A13013
:1007300009F431C5E0917100A23009F4FDC4A22D85
:10074000A17055954795B0E8EB9FF0011124F42E68
:10075000FE2A2F2CA0937100E4CCE0916000F0E021
:10076000EE0FFF1FEF59FF4FA081E1814CB55DB542
:1007700042315105D8F3ABBB3ABBB8BA0000000018
:100780000000000098BA4CB55DB542315105D8F370
:10079000EF73EBBB08BB82990DC04CB55DB5423120
:1007A0005105D8F388BB000000000000000018BA13
:1007B000829BF3CF000000000000000018BB1ABAB3
:1007C0003BBB4CB55DB542315105D8F368BB000069
:1007D00000000000000000000000A9B378BBE09119
:1007E0006000F0E0EE0FFF1FEF59FF4F4081518195
:1007F0004F5F5F4F5F7351834083ECB5FDB57297D8
:10080000E0F34BBB3ABBB8BA0000000000000000A8
:1008100098BAECB5FDB57297E0F35BBB08BB829963
:100820000DC04CB55DB542315105D8F388BB000011
:1008300000000000000018BA829BF3CF0000000007
:100840000000000018BB1ABA3BBB4CB55DB5423185
:100850005105D8F368BB0000000000000000000054
:100860000000F9B278BB4091600050E0FA01EE0F51
:10087000FF1FFA83E983EF59FF4F408151814F5F9A
:100880005F4F5F7351834083BF7DB43489F0E88547
:10089000F985F595E795F595E795F595E795E77071
:1008A000E150E73008F41EC140917100411139CC8C
:1008B000E981FA81EF59FF4F4F2D50E0542F442723
:1008C00044275F734A2B518340832BCCE885F985FD
:1008D000F595E795F595E795F595E795E770E1507E
:1008E000E73008F4E0C24091710041111ACC409108
:1008F0006000E42FF0E0EE0FFF1FEF59FF4F118271
:100900001082442309F428C441504093600009CC6C
:10091000E72DF0E0FE2FEE27EE27FF73E829ACB5B8
:10092000BDB55297E0F3EBBB3ABBB8BA000000008C
:100930000000000098BAACB5BDB55297E0F3EF2FB8
:10094000E068EBBB08BB82990CC0ECB5FDB57297B3
:10095000E0F388BB000000000000000018BA829B92
:10096000F4CF000000000000000018BB1ABA3BBB27
:10097000ECB5FDB57297E0F368BB00000000000025
:10098000000000000000B9B3B98378BBECB5FDB539
:100990007297E0F3A8BA0000000000000000C8BA97
:1009A000ECB5FDB57297E0F3D8BA00000000000086
:1009B0000000E8BAA981AF5FA983473000F1298020
:1009C000F22C41E0F11040E0409372004981441F55
:1009D0004427441F40937300E981E295EF704981F9
:1009E000E4274E2F46954695E4274E2F46954E27F1
:1009F00040954170409374005093710092CBE42F66
:100A0000F0E0EB5FFA4F0C949C09920823088008F1
:100A10007A087D0826082908A22D473008F060C012
:100A2000E42FF0E0EA5EFA4F0C949C09D708D40852
:100A3000E608DD08E008DA081D05E72DF0E0FE2FE6
:100A4000EE27EE27FF73E829ACB5BDB55297E0F36A
:100A5000EBBB3ABBB8BA000000000000000098BA37
:100A6000ACB5BDB55297E0F3EF2FE068EBBB08BB28
:100A700082990CC0ECB5FDB57297E0F388BB00001D
:100A800000000000000018BA829BF4CF00000000B4
:100A90000000000018BB1ABA3BBBECB5FDB572975D
:100AA000E0F368BB00000000000000000000000050
:100AB000B9B3B98378BBECB5FDB57297E0F3A8BACA
:100AC0000000000000000000C8BAECB5FDB5729748
:100AD000E0F3D8BA0000000000000000E8BAA981E5
:100AE000A1506ACFF0E0E958FA4F0C949C09120922
:100AF0000F091E091B09950815091809A091600026
:100B0000EA2FF0E0EE0FFF1FEF59FF4F40815181B8
:100B10005C834B8341E04A0F4770F42E40936000A2
:100B2000E42FF0E0AF01440F551F4F595F4F5A8338
:100B300049834B2F487350E0A981BA814D935C9350
:100B40003197FF2009F403C3EE0FFF1FEF59FF4F4A
:100B50004B815C81B8CE422DE1E0251608F0E0E043
:100B6000E0937100451BBCCCE72DF0E0FE2FEE2793
:100B7000EE27FF73E829ACB5BDB55297E0F3EBBBA8
:100B80003ABBB8BA000000000000000098BAACB54B
:100B9000BDB55297E0F35F2F50685BBB08BB8299ED
:100BA0000CC0ECB5FDB57297E0F388BB0000000007
:100BB0000000000018BA829BF4CF00000000000083
:100BC000000018BB1ABA3BBBECB5FDB57297E0F359
:100BD00068BB00000000000000000000000059B3E6
:100BE00078BBECB5FDB57297E0F3A8BA0000000041
:100BF00000000000C8BAECB5FDB57297E0F3D8BAB2
:100C00000000000000000000E8BA57CCFF1FFF27DB
:100C1000FF1FF0937100440F551FF42B2F2E81CA34
:100C2000E22D4CB55DB542315105D8F33ABBEBBB73
:100C300068BB0000000000000000DCCCE091600018
:100C4000F0E0EE0FFF1FEF59FF4FF080FD82418172
:100C50004E834CB55DB542315105D8F35D815BBB28
:100C60003ABBB8BA000000000000000098BA4CB5CA
:100C70005DB542315105D8F34E814F734BBB08BB74
:100C800082990DC04CB55DB542315105D8F388BB92
:100C9000000000000000000018BA829BF3CF0000A3
:100CA00000000000000018BB1ABA3BBB4CB55DB594
:100CB00042315105D8F368BB00000000000000007D
:100CC00000000000E9B3EB8378BB4091600050E086
:100CD000440F551FFA01EF59FF4F408151814F5F7B
:100CE0005F4F5F735A834983518340834CB55DB531
:100CF00042315105D8F359815BBB3ABBB8BA000009
:100D000000000000000098BA4CB55DB542315105B5
:100D1000D8F3EA81EBBB08BB82990DC04CB55DB539
:100D200042315105D8F388BB0000000000000000EC
:100D300018BA829BF3CF000000000000000018BB2F
:100D40001ABA3BBB4CB55DB542315105D8F368BB0F
:100D5000000000000000000000000000F9B278BBB5
:100D6000409160004A8750E0440F551FFA01EF5947
:100D7000FF4F408151814F5F5F4F5F735A834983BB
:100D8000518340834F2D50E0542F442744275F73F5
:100D9000FA01FB80EF29FC83EB83BF7DB63409F4B5
:100DA00093C0E885F985F595E795F595E795F5956F
:100DB000E795E770E150E73008F00BC2F0E0ED5145
:100DC000F94F0C949C09C5085F07C808C208E308DE
:100DD000B808BF08E0916000F0E0EE0FFF1FEF5988
:100DE000FF4FA081E1814CB55DB542315105D8F38B
:100DF000ABBB3ABBB8BA000000000000000098BAD4
:100E00004CB55DB542315105D8F3EF73EBBB08BB70
:100E100082990DC04CB55DB542315105D8F388BB00
:100E2000000000000000000018BA829BF3CF000011
:100E300000000000000018BB1ABA3BBB4CB55DB502
:100E400042315105D8F368BB0000000000000000EB
:100E500000000000A9B378BBE0916000F0E0EE0F65
:100E6000FF1FEF59FF4F408151814F5F5F4F5F730D
:100E700051834083E885F985F595E795F595E795E4
:100E8000F595E795E770E150E73008F0A6CAF0E085
:100E9000E45BF84F0C949C09EB01E901E701E501E3
:100EA000E301E1012109F0E0E85AF84F0C949C09B4
:100EB000EF08EC08FF08FC080209F208F908409165
:100EC000730041110C9491004A854F5FB42FB770A5
:100ED000B09360004B2F50E059874887FA01EE0F1E
:100EE000FF1FEF59FF4F4B815C8151834083BB2330
:100EF00009F409C14885598541505109FA01EE0F9D
:100F0000FF1FF987E887EF59FF4F49815A815183C5
:100F10004083AA2311F40C949100E885F985EF59D8
:100F2000FF4FBD81B083FE80F1820C949100E0916F
:100F30006000F0E0EE0FFF1FEF59FF4FA081E1814D
:100F40004CB55DB542315105D8F3ABBB3ABBB8BA2D
:100F5000000000000000000098BA4CB55DB54231B9
:100F60005105D8F3EF73EBBB08BB82990DC04CB5AC
:100F70005DB542315105D8F388BB00000000000088
:100F8000000018BA829BF3CF0000000000000000B0
:100F900018BB1ABA3BBB4CB55DB542315105D8F30D
:100FA00068BB000000000000000000000000A9B3C2
:100FB00078BBE0916000F0E0EE0FFF1FEF59FF4FAC
:100FC000408151814F5F5F4F5F7351834083E8855C
:100FD000F985F595E795F595E795F595E795E7702A
:100FE000E150E73020F1E22D422D4A0F5527551FE1
:100FF000F1E04F3F510509F008F4F0E0F093710083
:10100000AE0F2A2E41E0A11140E0409372004A2F1A
:10101000441F4427441F409373005A2F52955F701A
:10102000A5274A2F46954695542F5A276CCAF0E0BB
:10103000E45EF74F0C949C09800905098A096F0941
:101040008B02740976094980F42CBBCC8980F82C7A
:10105000B8CCE72DF0E0FE2FEE27EE27FF73E8294E
:10106000ACB5BDB55297E0F3EBBB3ABBB8BA0000E4
:1010700000000000000098BAACB5BDB55297E0F38F
:101080004F2F406C4BBB08BB82990CC0ECB5FDB533
:101090007297E0F388BB000000000000000018BA5F
:1010A000829BF4CF000000000000000018BBECB5EC
:1010B000FDB57297E0F33ABBB981BBBB68BB0000DA
:1010C00000000000000078BBECB5FDB57297E0F3BE
:1010D000A8BA0000000000000000C8BAECB5FDB5D9
:1010E0007297E0F3D8BA0000000000000000E8BAF0
:1010F000F98067CC6980F62C64CC7980F72C61CCC0
:101100005980F52C5ECC49815A81509370004093F0
:101110006F00AA2311F40C949100AEE0B0E0B987FF
:10112000A887FBCE3980F32C4CCC40917200413023
:1011300011F00C949100BCCBFF1FFF27FF1F440F41
:10114000551FE42B2E2EF09371000C949100E7E0D4
:10115000F0E0FACCA72D2FCC47E0D7CBA62D2BCC97
:10116000A52D29CCA42D27CCA32D25CCA82D23CC6F
:1011700040917300413011F00C949100A5CE409144
:101180007400F8CF40917100F5CF4091720099CE74
:101190004091740096CEF170F0937100559547958B
:1011A000F795FF27F79539CDA42DA15005CCA32D98
:1011B000A15002CCA82DA150FFCBA62DA150FCCB55
:1011C000A72DA150F9CB40917200D4CFA52DA150ED
:1011D000F3CB4091710075CE4091730086CB409166
:1011E000720083CB40917300413011F00C94910058
:1011F0007ECB40917400F8CF40917100F5CF4091C3
:10120000740073CB40917200EFCF422D51E02A164B
:1012100008F050E0509371004A1B0C946F0240910B
:10122000730044CB4091720041CB409173007FCF5B
:10123000409174007CCF4091710079CF409174004F
:1012400035CB472D50E0542F442744275F7348295E
:10125000ECB5FDB57297E0F34BBB3ABBB8BA0000F2
:1012600000000000000098BAECB5FDB57297E0F3FD
:10127000452F406C4BBB08BB82990DC04CB55DB58A
:1012800042315105D8F388BB000000000000000087
:1012900018BA829BF3CF000000000000000018BBCA
:1012A0004CB55DB542315105D8F33ABBABBB68BB19
:1012B000000000000000000078BB4CB55DB5423175
:1012C0005105D8F3A8BA0000000000000000C8BA19
:1012D0004CB55DB542315105D8F30C943B02A221C7
:1012E0002A2E109271008ECEA229FACF422D51E003
:1012F0002A1608F050E0509371004A1B0C947002BB
:10130000E22DEA0FFF27FF1FAF01E09171004E0FA2
:10131000511DB8C9422D50917100EA2FE50FFF27EA
:10132000FF1FB1E02E161F0608F0B0E0B093710069
:101330005A0F451B0C946F02EE0FFF1F0590F4919E
:08134000E02D0994F894FFCFA1
:00000001FF
