:100000000C942A000C943C000C943C000C943C0092
:100010000C943C000C943C000C943C000C943C0070
:100020000C943C000C943C000C943C000C94BC00E0
:100030000C943C000C943C000C943C000C943C0050
:100040000C943C000C943C000C943C000C943C0040
:100050000C943C0011241FBECFE5D8E0DEBFCDBF1D
:1000600020E0A0E6B0E001C01D92A23AB207E1F79D
:100070000E9406010C9400050C9400008F70909172
:100080007C00913019F4883008F4805F089588234B
:1000900009F435C09091900081E001C0880F9A95D5
:1000A000EAF740E0662331F090918F0040E491112F
:1000B00001C040E23AB3307F25B3282B95B3809539
:1000C00098238BB3807F842B482F4F79929A00001E
:1000D0000000000000000000000092983ABB8BBBBB
:1000E0000000939A25BB000089B3000000000000C7
:1000F000939895BB4BBB000000008F70089580E083
:10010000D0CF90E0442339F03091900091E001C0CD
:10011000990F3A95EAF730E0222331F020918F00D1
:1001200030E4211101C030E22BB3207E8F70822B8E
:10013000832B611180613AB33F6025B3292B45B30E
:1001400090959423482F4F79929A00000000000068
:1001500000000000000092983ABB8BBB0000939A0D
:1001600025BB00000000000000000000939895BB34
:100170004BBB0000000008951F920F920FB60F9224
:1001800011242F933F938F939F93AF93BF938091AD
:100190009E0090919F00A091A000B091A10030918D
:1001A0009D0023E0230F2D3768F126E8230F0296E8
:1001B000A11DB11D20939D0080939E0090939F00F0
:1001C000A093A000B093A1008091990090919A0013
:1001D000A0919B00B0919C000196A11DB11D809340
:1001E000990090939A00A0939B00B0939C00BF91BC
:1001F000AF919F918F913F912F910F900FBE0F90D4
:100200001F9018950196A11DB11DD4CF789483B786
:10021000836083BF83B7886483BF89B7816089BFE8
:1002200082E08EBD8EB581608EBD8FB581608FBD41
:1002300085B5846085BD85B5806485BD87E886B950
:100240001AB881B38C6081BB81B38E7E81BB82B3CF
:10025000816182BB8AB380678ABB8FEF84BB82B324
:10026000837F82BBDC981092600010926100109234
:1002700063001092620010928F0010929000109212
:100280007C0010928E0010929100109296001092B5
:10029000970010929800D1E0E3E0EE2EF12CFFE001
:1002A000DF2EA4E0CA2EB3E0BB2E809196008823F7
:1002B00071F18091970081112AC080919100811184
:1002C00026C0809924C010929800D0939700109275
:1002D000960080917C0080937D00D0937C0080917B
:1002E0008E00E82FE770F0E0EE0FFF1FE258FF4F9F
:1002F00020916200309163003F70318320838F5FD3
:10030000877080938E00F0926300E092620070909C
:100310009800772069F0C0E061E0C11160E020E062
:1003200040E080E00E948100CF5FC830A9F7BDCFD8
:100330000091620010916300A0909100AA2009F43E
:1003400070C080919200833039F081116AC0809131
:1003500093008E3009F065C080917C00E0E0813030
:1003600009F4E0E1F0E0E05AFF4F8480E1E0813001
:1003700009F4E1E120E1829E400111248091940082
:1003800090919500882A992AF0E0E05AFF4F8481E5
:10039000882A4FE0942220E040E061E0882D8F70B1
:1003A0000E948100C40164E0969587956A95E1F703
:1003B00020E040E060E08F700E94810020E040E09B
:1003C00060E0892D8F700E94810061E080E00E94D2
:1003D0004700982E61E080E00E944700C82F20E08F
:1003E00040E060E080E00E948100AA2009F4B1C0F2
:1003F0008091930090E1999E90011124AC2EA22A45
:10040000E0919200E83098F4F0E0E75FFD4F0C9443
:10041000FA04130226024A02680290027E021702C0
:100420009B024801B8CF8E3011F4C093600020E0E9
:1004300040E060E080E00E94810020E040E060E079
:1004400080E00E948100109291002FCF80FF05C0B4
:1004500070B274FA772470F87D2681FF07C091E0AE
:1004600020916100213009F090E0792A82FF06C0D6
:1004700091E020916000211190E0792A83FD7D2692
:10048000772011F100271F700A2910936300009351
:100490006200CDCF80FDCBCFC82FCE708C2F0E94B5
:1004A0003E00E82FF0E0E05AFF4F8A2D82958F70D2
:1004B000848381E08C0F0E943E00E82FF0E0E05A38
:1004C000FF4F8A2D8F7084830F5F1F4F1F70DDCF0A
:1004D00080FDADCF182F1E70812F0E943E00E82FA7
:1004E000F0E0E05AFF4F948281E0810F0E943E00CD
:1004F000E82FF0E0E05AFF4FC48399CF90918E002F
:10050000E92FE770F0E0EE0FFF1FE258FF4F0F5F9B
:100510001F4F1F70118300839F5F977090938E0011
:1005200090E0982F882788279F708A2990936300EE
:10053000809362007CCF0E943E00E82FF0E0E05AFA
:10054000FF4F94819F5F9F709483992309F4BCCFE0
:1005500099CF2FE0291508F42FC0E92DF0E0ED54D4
:10056000FD4F0C94FA04C302EC0446036D03EC0443
:10057000EC049003EC049C03B703CA03D303E10328
:10058000F703FB034E04EFEFEC0FEE30A8F4F0E0BE
:10059000E453FD4F0C94FA04DA02E00207030C0363
:1005A0001A0320032E03340337033A033D034003A9
:1005B0004303EC04D09398000F5F1F4F1F70ABC034
:1005C000E0918E00E150E770E0938E00F0E0EE0FD6
:1005D000FF1FE258FF4F808191819F7090936300CD
:1005E0008093620080917D0080937C001092970040
:1005F000D093960020E040E060E080E00E9481001F
:1006000020E040E060E080E00E9481004ECE8091DA
:10061000900080936000D0CF80917C00813009F4FD
:10062000C4E1EC2FF0E0E05AFF4F8481909160002C
:10063000892BEFCF80917C00813099F7C5E1F1CF14
:1006400080917C00813009F4C6E1EC2FF0E0E05AA3
:10065000FF4F8481909160008923DBCF80917C00E3
:10066000813099F7C7E1F1CF10928F00A5CFD093D9
:100670008F00A2CF10927C009FCFD0937C009CCFA4
:100680001092960099CFD093960096CFC0FFA4C148
:10069000CE7081E08C0F0E943E00E82FF0E0E05A1F
:1006A000FF4FA4808C2F0E943E00E82FF0E0E05A1C
:1006B000FF4F20E041E060E084810E94810020E063
:1006C00041E060E08A2D0E9481000F5F1F4F1F7084
:1006D0001093630000936200E8CDC0FF7DC1CE702F
:1006E0008C2F0E943E00A82E81E08C0F0E943E00BD
:1006F000E82FF0E0E05AFF4F848100271F70082B9D
:10070000EA2DF0E0E05AFF4F848140E1849FC00170
:100710001124082B192B10936300009362006ACFF9
:100720008C2F0E943E00E82FF0E0E05AFF4F8481BA
:100730008F5F8F70848340CF8C2F0E943E0020916A
:100740006000E82FF0E0E05AFF4F8481280F332744
:10075000331F80916100820F932F911D21E0803122
:1007600091050CF420E0209361008F7052CF8C2F04
:100770000E943E00E82FF0E0E05AFF4F848190E0B5
:10078000809590958F70992720916000280F392FC0
:10079000311DDFCF8C2F0E943E00E82FF0E0E05AA1
:1007A000FF4F848136CF8C2F0E943E0090916000D5
:1007B000E82FF0E0E05AFF4F84818093600094833B
:1007C000FBCEE0918E00E150E770E0938E00F0E008
:1007D000EE0FFF1FE258FF4F808191819F70909331
:1007E000630080936200CF70C093600003CFCF702E
:1007F000C0936000E1CEC830F8F41091600021E0B1
:10080000C23009F020E041E0C23009F440E060E08D
:10081000812F0E94810020E040E060E0812F0E9453
:100820008100809162009091630001969F70909387
:1008300063008093620039CD61E0CA3009F060E066
:1008400081E0CA3009F480E00E944700C830F1F42A
:1008500090E0809590958F70992720916000280FE7
:10086000392F311D80916100820F932F911D21E05E
:10087000803191050CF420E0209361008F7080930B
:10088000600060E080E00E944700CBCFCB30B9F73A
:1008900020916000280F3327331FE4CFC03108F0C8
:1008A0008BCEEC2FF0E0E95AFB4F0C94FA0467046E
:1008B00069046C0476047C0480049004A204A804F7
:1008C000B504B204BC04C704DE04DC02E4041092E4
:1008D00060001092610070CE809160008F5F91E0A7
:1008E000803108F490E0909361003FCF80916100E7
:1008F0008D278093610060CE80916000809535CF18
:100900008091600090E09C01220F331F9091610064
:10091000922B9F709093600083FB882780F9E9CF2A
:10092000909160008091610048E0849F90011124C3
:10093000892F8695822B8F708093600091709093A1
:1009400061003ACE80916100817080936000C1CFD8
:1009500080916000811103C0D0926000BACF8150B5
:1009600080936000D093610027CE80916100811157
:10097000CAE0C0936000ADCF809160008A3028F457
:1009800090916100992309F417CE8A5FA8CF8091D6
:1009900060009FEF980F923008F40ECE843019F467
:1009A000B092600009CE883019F4C092600004CE85
:1009B000882309F401CED0926000FECD80916000C2
:1009C000877080939000F8CD81E090916100992329
:1009D00009F4BBCF80E0B9CFD09391009092920000
:1009E000C0939300C80188279F70909395008093CF
:1009F0009400E2CDEE0FFF1F0590F491E02D0994D5
:040A0000F894FFCF98
:00000001FF
