:100000000C942A000C9447000C9447000C94470071
:100010000C9447000C9447000C9447000C94470044
:100020000C9447000C9447000C9447000C942A0150
:100030000C9447000C9447000C9447000C94470024
:100040000C9447000C9447000C9447000C94470014
:100050000C94470011241FBECFE5D8E0DEBFCDBF12
:1000600010E0A0E6B0E0EEE9FCE002C005900D92E1
:10007000A236B107D9F720E0A2E6B0E001C01D9298
:10008000A638B207E1F70E9474010C944D060C9457
:100090000000AC01AA9AAB989BB3907F842F8F701D
:1000A000982B9BBB8AB38F608ABBA89A00C000C004
:1000B000A8980000AC9A0000AC98A99A00C000C0B3
:1000C000A99800C000C00000AA988BB39A0194E0E0
:1000D000369527959A95E1F72F70807F282B2BBBBB
:1000E000A89A00C000C0A8980000AD9A0000AD9882
:1000F000A99A00C000C0A99800C000C000009BB32E
:10010000852F8F70907F892B8BBBA89A00C000C071
:10011000A8980000AF9A0000AF98A99A00C000C04C
:10012000A99800C000C000008BB3807F8BBB8AB34E
:10013000807F8ABBAE98A89A00C000C0A898000033
:10014000000029B3A99A00C000C0A99800C000C04F
:100150000000AE9AA89A00C000C0A8980000000055
:1001600089B3A99A00C000C0A99800C000C00000CF
:10017000AB9A8F7090E1299F90011124822B0895F2
:10018000A89A00C000C0A8980000A99A00C000C0AA
:10019000A99800C000C00000A89A00C000C0A8989C
:1001A0000000A99A00C000C0A99800C000C00000CB
:1001B000A89A00C000C0A8980000A99A00C000C07A
:1001C000A99800C000C0000018BA96988BB3807F31
:1001D0008BBB8AB3807F8ABB80917B0090917C002F
:1001E0000E94490020917B0030917C002F5F3F4F9F
:1001F0003F7030937C0020937B00A89A00C000C021
:10020000A8980000A99A00C000C0A99800C000C02A
:100210000000A89A00C000C0A8980000A99A00C0D9
:1002200000C0A99800C000C00000A89A00C000C08B
:10023000A8980000A99A00C000C0A99800C000C0FA
:10024000000018BA96989BB3907F9BBB9AB3907F9F
:100250009ABB08951F920F920FB60F9211242F93FD
:100260003F938F939F93AF93BF9380918200909120
:100270008300A0918400B09185003091810023E03B
:10028000230F2D3768F126E8230F0296A11DB11D1B
:10029000209381008093820090938300A093840038
:1002A000B093850080917D0090917E00A0917F00A9
:1002B000B09180000196A11DB11D80937D009093A7
:1002C0007E00A0937F00B0938000BF91AF919F917B
:1002D0008F913F912F910F900FBE0F901F90189507
:1002E0000196A11DB11DD4CF789483B7836083BFDD
:1002F00083B7886483BF89B7816089BF82E08EBD80
:100300008EB581608EBD8FB581608FBD85B58460EF
:1003100085BD85B5806485BD87E886B91AB8F8942F
:1003200084B7806884BF84BF19BE8FE08ABB87B35F
:100330008F6087BB84B38FEF84BB81B3836781BB3E
:1003400081B3837F81BBAB9A82B3806382BB939A74
:10035000FF24F39462E7A62E60E0B62E70E0C72E6D
:1003600070E0D72EE2E04E2ED1E0F4E0EF2EA8E0D0
:100370005A2EBFE07B2E53E0652E829B30C0109238
:100380007C0010927B0010927A0010927900D0933A
:100390006000109278001092730010927200109218
:1003A0007500109274001092770010927600E2E6C9
:1003B000F0E01192AE16BF06E1F7A89A00C000C0A7
:1003C000A8980000A99A00C000C0A99800C000C069
:1003D0000000C114D10489F20E940000CCCF8091AA
:1003E0007B0090917C000E944900C82F80917B0087
:1003F00090917C0001969F7090937C0080937B008D
:100400000C2F02950F701C2F1F70EFEFE00FEF30D5
:1004100008F075C0F0E0E15FFD4F0C9447061E0246
:10042000460298021C0324033F0348035303650359
:1004300072037A038503A003A303B2050E94C000E0
:1004400090E0C0FF05C090B393FB992790F99F25DA
:10045000C1FF04C0209179002111902FC2FF05C077
:1004600020917A00211101C0902FC3FD9F2599236F
:1004700009F4AFCF20917B0030917C0022273F70A0
:10048000282B30937C0020937B00A3CF0C2F0E7081
:1004900010E098012E593F4F49010D591F4FC0FDE3
:1004A0000BC00E94C000982F92959F70F40190831A
:1004B0008F70F80180838DCFF9018081F0E18F9FEB
:1004C00090011124F8018081822B809378009BB3E6
:1004D000907F8F70892B8BBB8AB38F608ABB0000A3
:1004E000909A000090989BB38091780082958F70CD
:1004F000907F892B8BBB0000919A00009198A89A5D
:1005000000C000C0A8980000A99A00C000C0A99827
:1005100000C000C00000A89A00C000C0A898000059
:10052000A99A00C000C0A99800C000C0000035C151
:10053000019788279F700C2F0E7010E098012E599C
:100540003F4F49010D591F4FC0FD66C02091620009
:1005500040E1249F9001112440916300242B822BC1
:10056000932BA89A00C000C0A8980000A99A00C0C8
:1005700000C0A99800C000C00000A89A00C000C038
:10058000A8980000A99A00C000C0A99800C000C0A7
:100590000000A89A00C000C0A8980000A99A00C056
:1005A00000C0A99800C000C0000018BA96982BB3EC
:1005B000207F2BBB2AB3207F2ABB0E944900A89A28
:1005C00000C000C0A8980000A99A00C000C0A99867
:1005D00000C000C00000A89A00C000C0A898000099
:1005E000A99A00C000C0A99800C000C00000A89A45
:1005F00000C000C0A8980000A99A00C000C0A99837
:1006000000C000C0000018BA96989BB3907F9BBBB7
:100610009AB3907F9ABB47CFF9012081F0E12F9FD9
:1006200090011124F8014081842B822B932B90930D
:100630007C0080937B0063CF0E94C000912F909339
:100640007C0080937B00C5CE0E94C0002091740086
:1006500030917500309377002093760020917200DE
:1006600030917300309375002093740020917B00CB
:1006700030917C003093730020937200DFCFE12F24
:10068000F0E0EE59FF4F90819F5F9F70908337CFCE
:100690000E94C000E12FF0E0EE59FF4F90819F5F74
:1006A0009F709083E4CE80917A0090917900890FB9
:1006B000E12FF0E0EE59FF4F9081890F91E08031FA
:1006C00008F490E09093790078C2E12FF0E0EE59C1
:1006D000FF4F808180958F7090917A0020917900F2
:1006E000920FEBCFE12FF0E0EE59FF4F8081809326
:1006F0007A0005CF80917A00E12FF0E0EE59FF4FAC
:10070000908190937A008083FACE10937A00809142
:1007100072009091730090937C0080937B00809195
:100720007400909175009093730080937200809193
:100730007600909177009093750080937400DFCEDF
:1007400010937A00DCCE111135C090917A0080911F
:10075000600088BB9698A89A00C000C0A8980000C6
:10076000A99A00C000C0A99800C000C000008BB3C7
:10077000807F9F70892B8BBB8AB38F608ABB9498D4
:10078000A89A00C000C0A8980000A99A00C000C0A4
:10079000A99800C000C00000949AA89A00C000C0A8
:1007A000A8980000A99A00C000C0A99800C000C085
:1007B000000078C18FEF810F833070F48BB32091EC
:1007C0007A00F0E12F9F900111248F70822B8BBB58
:1007D0008AB3806F8ABB93CE143009F040C08091F9
:1007E000600088BB9698A89A00C000C0A898000036
:1007F000A99A00C000C0A99800C000C000008BB337
:10080000807F8BBB8AB3807F8ABB0000A89A00C020
:1008100000C0A8980000A99A00C000C0A99800C014
:1008200000C000009598000089B3959A0000A89A2E
:1008300000C000C0A8980000A99A00C000C0A998F4
:1008400000C000C0000018BA96989BB3907F9BBB75
:100850009AB3907F9ABB8F7080937A00BACD15308F
:10086000D9F58BB38F708BBB8AB38F708ABBA89A74
:1008700000C000C0A8980000A99A00C000C0A998B4
:1008800000C000C00000A89A00C000C0A8980000E6
:10089000A99A00C000C0A99800C000C000000000D4
:1008A00089B390E044E0959587954A95E1F7809368
:1008B0007A00A89A00C000C0A8980000A99A00C0B9
:1008C00000C0A99800C000C000008BB3807F8BBB24
:1008D0008AB3807F8ABB7DCD163009F04AC08091F3
:1008E000600088BB9698A89A00C000C0A898000035
:1008F000A99A00C000C0A99800C000C000008BB336
:10090000807F8BBB8AB3807F8ABB0000A89A00C01F
:1009100000C0A8980000A99A00C000C0A99800C013
:1009200000C000009598000099B3959A0000A89A1D
:1009300000C000C0A8980000A99A00C000C0A998F3
:1009400000C000C0000018BA96988BB3807F8BBBA4
:100950008AB3807F8ABB80917A0020917900820FD0
:100960009F70890F91E0803108F490E090937900B6
:1009700072CF173009F043C08091600088BB969811
:10098000A89A00C000C0A8980000A99A00C000C0A2
:10099000A99800C000C000008BB3807F8BBB8AB3D6
:1009A000807F8ABB0000A89A00C000C0A898000001
:1009B000A99A00C000C0A99800C000C00000959886
:1009C000000099B3959A0000A89A00C000C0A898AA
:1009D0000000A99A00C000C0A99800C000C0000093
:1009E00018BA96988BB3807F8BBB8AB3807F8ABB03
:1009F00080917A0020917900820F9095B1CF8C2F51
:100A00008C70883009F051C090917A00809160001C
:100A100088BB969A8BB3C370807FC82BCBBB8AB33D
:100A20008F608ABB0000909A00009098A89A00C03E
:100A300000C0A8980000A99A00C000C0A99800C0F2
:100A400000C000008BB3807F9F70892B8BBB8AB363
:100A50008F608ABB9498A89A00C000C0A898000034
:100A6000A99A00C000C0A99800C000C00000949AD4
:100A7000A89A00C000C0A8980000A99A00C000C0B1
:100A8000A99800C000C000009BB3809178008F70CF
:100A9000907F892B8BBB8AB38F608ABB0000909AB2
:100AA0000000909818BA969810CF8C3009F027CD96
:100AB0008091600088BB969A8BB3C370807FC82BEF
:100AC000CBBB8AB38F608ABB0000909A00009098DD
:100AD000A89A00C000C0A8980000A99A00C000C051
:100AE000A99800C000C000008BB3807F8BBB8AB385
:100AF000807F8ABB0000A89A00C000C0A8980000B0
:100B0000A99A00C000C0A99800C000C00000959834
:100B1000000099B3959A0000A89A00C000C0A89858
:100B20000000A99A00C000C0A99800C000C0000041
:100B30002BB3809178008F70207F822B8BBB8AB380
:100B40008F608ABB0000909A0000909818BA96981F
:100B50008BB3807F8BBB8AB3807F8ABB9F7090935F
:100B60007A0037CC1E3008F0CACCE12FF0E0E55413
:100B7000FA4F0C944706C905CB05CE05D205DA0518
:100B8000DF05EE05FC05010605060C060F061E0630
:100B9000300610927A0010927900B1CC80917A00E0
:100BA0008F5F8CCD81E090917900911180E08093EE
:100BB0007900A5CC80917A0080958F7098CD209196
:100BC000790090917A00892F90E083FB332730F9E8
:100BD00030937900880F991F822BEFCF20917900F5
:100BE00080917A00982F917090937900869548E0D3
:100BF000249F90011124F0CF8091790080937A0096
:100C0000CACF80917A00815F59CD8091790081119E
:100C10001AE010937A00BFCFD093790070CC809106
:100C20007A0090917900911103C08A3008F467CC62
:100C30008A5F803110F2D0937900BFCF80917A0023
:100C4000833008F45CCC843019F460927A0057CC7D
:100C5000883019F4E0927A0052CC70927A004FCC2E
:100C600080917A008770813061F040F0823061F0CD
:100C7000843009F044CC5092600041CCD0936000A5
:100C80003ECC409260003BCCE092600038CCEE0F4E
:0E0C9000FF1F0590F491E02D0994F894FFCF1A
:020C9E00010053
:00000001FF
