:100000000C942A000C943C000C943C000C943C0092
:100010000C943C000C943C000C943C000C943C0070
:100020000C943C000C943C000C943C000C943C0060
:100030000C943C000C943C000C943C000C943C0050
:100040000C943C000C943C000C943C000C943C0040
:100050000C943C0011241FBECFE5D8E0DEBFCDBF1D
:1000600020E0A0E6B0E001C01D92AE37B207E1F794
:100070000E946E000C9470030C94000088B38C7F77
:10008000816088BB82E08A95F1F7000088B38C7F9D
:1000900088BB00C000C008950E943E0088B38C7FDA
:1000A000826088BB00C000C0000080B300C098B36D
:1000B0009C7F98BB00C000C08F7008950E943E00D6
:1000C00088B38C7F826088BB00C000C0000000C085
:1000D00088B38C7F88BB00C000C0089581B3807F47
:1000E00081BB82B3807F82BB87B3876087BB87B3C6
:1000F000877E87BB88B3887F88BBC49A84B38F61AF
:1001000084BB85B3807E85BBFF24F39463E0E62E39
:1001100072E0D72EEFE0CE2EF4E0BF2E44244394BD
:10012000512CB39B22C010927D0010927C00109243
:100130007B0010927A001092790010927800109251
:100140007700109276001092750010927400109251
:1001500073001092720085B3807E85BB81B3807F6F
:1001600081BB82B3807F82BBDCCF70907300C09173
:100170007C00D0917D00809172008823B1F0809145
:100180007100833091F48091700080FD0EC0219742
:10019000CC27DF7080916100C82B8091600020E146
:1001A000829FC0011124C82BD92BC29A81B38F60C2
:1001B00081BB82B3807F9C2F9F70892B82BB0E9462
:1001C0005E00C29822B3CE0154E0969587955A9569
:1001D000E1F78F70207F822B82BB0E945E0092B37A
:1001E0008D2F8F70907F892B82BB0E945E0081B320
:1001F000807F81BB82B3807F82BB0E944C00882EAF
:100200000E944C00982E20917200222341F0809190
:100210007100833021F48091700080FF38C080919C
:100220007C0090917D0001969F7090937D0080935B
:100230007C0021112CC08092710090927000192DC9
:10024000D82D0E945E00D23039F510FF6AC081B30C
:100250008F6081BB92B3E12FF0E0EE7FFF27E05A81
:10026000FF4F81818F70907F892B82BB0E945E003F
:1002700010FF28C092B3E12FF0E0EE7FFF27E05A95
:10028000FF4F80818F70907F892B82BB1BC0D091E4
:10029000710010917000D5CFDE3009F042C0812F7F
:1002A000877F823091F4A89A81B31830D8F48F6098
:1002B00081BB92B3809175008F70907F892B82BB38
:1002C0000E945E000E945E0040C085B3472D4370CF
:1002D000742E7394920101C0220F7A94EAF7822B54
:1002E00085BBE2CF807F81BB82B3807F82BB0E94CF
:1002F0004C00C82F0E945E001830F1F48091750008
:1003000090917400890FC095CF70C80F8C2F8F709B
:100310008093750081E0C03108F480E08093740020
:1003200014C00E945E00D23009F4A2CFDE3051F634
:10033000183040F2C0E0DECF8091750090917400DB
:10034000890F1B3011F3C0937500809172008111E9
:1003500041C1D13049F08CEF8D0F823028F0D73079
:1003600019F0D23069F410FFF092720081B3807FEF
:1003700081BB82B3807F82BB85B3807E85BBD1CEBB
:10038000D330E1F410FFF0CFE12FF0E0EE7FFF2754
:1003900080917C0090917D0088279F70E05AFF4FEC
:1003A0002181822B208140E1249F90011124822B06
:1003B000932B90937D0080937C00D8CFD650DA3079
:1003C000A8F6ED2FF0E0E951FE4F0C946A03F1011D
:1003D000B601FA010F021C0225022F024702B601E4
:1003E0004B02E12FF0E0E05AFF4F80818F5F8F706A
:1003F0008083BCCF8091750090917400890FE12FAC
:10040000F0E0E05AFF4F9081890F982F9F709093F2
:10041000750091E0803108F063C090E061C0E12F89
:10042000F0E0E05AFF4F808180958F7090917500C9
:1004300020917400920FE8CFE12FF0E0E05AFF4FD7
:1004400080818F708093750091CF80917500E12F2E
:10045000F0E0E05AFF4F908190937500C9CF1F7074
:10046000109375008091760090917700209178002C
:1004700030917900309377002093760020917A00B4
:1004800030917B00309379002093780092CF1F70D9
:10049000109375006BCF1E3008F068CFE12FF0E0AD
:1004A000EC5AFD4F0C946A03620264026702730205
:1004B0007B027F028C029E02A302AD02C102B40243
:1004C000C402D60210927500109274004FCF809132
:1004D00075008F5F8F708093750091E081119DCFC3
:1004E0009093740043CF81E090917400911180E06B
:1004F000809374003BCF809175008095A2CF80914E
:100500007500880F90917400892B982F9F7090939D
:10051000750082958170ECCF8091740090E1899F85
:100520009001112480917500822B282F30E03595A1
:1005300027952F70209375008170DACF8091740019
:1005400080937500C1CF8091750091E0811101C049
:1005500090E090937400815074CF80917400811169
:100560001AE010937500B0CF809175008A3028F49E
:1005700090917400992309F4F9CE8A5F8F7080936B
:100580007500F0927400F2CE80917500833008F40B
:10059000EDCE843019F4E0927500E8CE883019F47D
:1005A000B0927500E3CEC0927500E0CE80917500E8
:1005B00080FF03C0F0927300D9CE81FF03C0D092B8
:1005C0007300D4CE82FF03C0E0927300CFCE1092AE
:1005D0007300CCCE20E1829EC00111248929D33042
:1005E00009F447C040F4D13019F1D23009F441C0C8
:1005F00010927200BBCED53009F444C008F45AC042
:10060000D730B1F7E12FF0E0E05AFF4F90819F5FC4
:100610009F709083992361F320917C0030917D003D
:1006200022273F70282B30937D0020937C00E0CF61
:10063000412F487012FF04C031E090917500911174
:1006400030E011FF05C021E090917400913009F075
:1006500020E090E010FF04C096B3929591709F2522
:10066000311134C0211132C0911130C04111D4CFA9
:10067000BFCFE12FF0E0EE7FFF27E05AFF4F8082EF
:100680009182B6CF20917C0030917D00409178001E
:100690005091790050937B0040937A00409176000E
:1006A0005091770050937900409378003093770011
:1006B00020937600E12FF0E0FE2FEE27EE27FF706B
:1006C000E82BF0937D00E0937C0092CF442309F463
:1006D000A3CF8ECFEE0FFF1F0590F491E02D09946C
:0406E000F894FFCFBC
:00000001FF
